:100000000C945A080C9482080C9482080C94820870
:100010000C9482080C9482080C9482080C94820838
:100020000C9482080C9482080C94FF090C94710AB9
:100030000C9482080C9482080C9482080C94820818
:100040000C9482080C9407100C9482080C9482087B
:100050000C9482080C9482080C9482080C941A0F59
:100060000C9482080C9482080C9482080C948208E8
:100070000C9482080C9482080C9482080C948208D8
:100080000C94A5100C9482080C9482080C9482089D
:100090000C9482080C9482080C9482080C948208B8
:1000A0000C9482080C9482080C948208FD0C000DBC
:1000B000EF0CF30CF70C210D210D210D040D080D93
:1000C0000C0D120D160D210D1C0D980D9D0DA20D80
:1000D000AC0DB60D000E000E000EC00DCA0DD40DF5
:1000E000DE0DEB0D000EF30DF0F89C8E8783878EEE
:1000F0009CF8F00000FEFF0303030303070EFCF867
:100100000000FEFF0303030303070EFCF80000FFDB
:10011000FF00000000000000FFFF0000FEFF8383DF
:10012000838383C7EE7C380000F8FC0E07030303CB
:10013000070EFCF800003F7FE0C08080C0E07F3FFA
:10014000FFFF01010101010101FFFF0000FFFF0CA2
:100150000C0C0C1C3E77E3C100007FFFC0C0C0C088
:10016000C0E0703F1F00001F3F70E0C0C0C0E070E3
:100170003F1F00007FFFC1C1C1C1C1E3773E1C002A
:10018000001F3F70E0C0C0C0E0703F1F00000000D3
:100190000001FFFF01000000000000002400270014
:1001A0002A002D003000D5F08D14A1C881CFD9F1DF
:1001B000AF20001402130212021502070208020403
:1001C000010C01060100537461727421001E1600B7
:1001D0000000E0F8FCFEFFFFFFFFFFFFFFFFFFFF57
:1001E000FFFFFFFFFFFFFFFFFFFEFCF8E000000046
:1001F000FFFFFFFFFFFFFFFFFFFFFFFFFFFFFFFF0F
:10020000FFFFFFFFFFFFFFFFFFFFFF0000003F3F7B
:100210003F3F3F3F3F3F3F3F3F3F3F3F3F3F3F3FEE
:100220003F3F3F3F3F3F3F3F3F1E16000000E0186B
:1002300004C2310905030101010101C1310DE319B6
:100240000503010101020418E0000000FF1F04FF84
:1002500004041F7D477D1F0404FF041FF51F047461
:1002600044444474041FFF0000003F38203F202016
:10027000202020202020203F20382F382020202020
:10028000202020383F20190000000000000000005E
:1002900000FF010101010101010101010101010151
:1002A00001010101FF02FC0000E0E020E02020E06D
:1002B000E03FF0F03030F030F0B0F030B0303030BF
:1002C000B030F0F01F08070000FFC000FF00000082
:1002D000030203000000FF00C07FC000030202020F
:1002E0000300C0FF00000000000101010101010145
:1002F00001010101010101010101010101010101EE
:10030000010101010000001E1600000000382462F7
:1003100079A5A331293929392121312925334945A5
:10032000838302020418E0000000FC1C04FC0404A7
:100330001C7D457E1E0404FC041CF41C047444440F
:100340004575051EFF0000003F38203F202020207B
:1003500020202020203F20382F382020202020203F
:1003600020383F4C4F4F5421202D20457069632089
:1003700044756E67656F6E0A0A50726F6772616DC1
:100380006D696E67203A0A204062616B6167616D3A
:10039000656465760A205068617261700A41727402
:1003A0002F44657369676E203A200A204D69677A89
:1003B000202847616D65726775792900402000002B
:1003C0000000000000000020F824240000805050AD
:1003D00050E000F01010E00000E0101010A00070DD
:1003E0008080F0000000000000000000000000001D
:1003F00000000000000000000000000000000000FD
:1004000000E05050502000B04140B00000F0111109
:1004100011E100E1101011E0002051515180000263
:10042000F601000010F8109000000000F400000039
:10043000E0101010E000F01010E0000000000000DC
:100440000000010161909091F00011E01013210172
:1004500081505050E101F1101010E101FD1010E049
:1004600001010000F4000100E0101010A1010000E3
:100470000001010100000100000100000000000077
:100480000000000000020202010001010100000062
:100490000001010101000301010100000100000150
:1004A0000000000001010000000101010000000047
:1004B00000000000000000000000000000003E00FE
:1004C00052756E004974656D004669676874007402
:1004D0006F2066696768742100536B656C6C796284
:1004E0006F6E65732077616E7473001020000000DA
:1004F00078CCCCDE7EDECECC780000000000C038A8
:1005000018A0ED4B7D4BEDA71838C000000E31C090
:1005100080A66D7371E32D0600C0F0CF00008281CC
:100520008FB1C00000008FF0C083000102426174EF
:10053000746C652100204944203A20004974656D9F
:10054000203A2054797065203A20004E6F74686913
:100550006E6720746F207365652068657265210081
:100560003E004261636B004368616C6C656E676559
:100570000053746F7279003E0041626F75740043DE
:100580006F6E66696700506C6179007036F0980C88
:100590003C98C0E0F0F0F0E0C0C0E02000000000B7
:1005A0000000000000000000000000008080C0E0AB
:1005B000E0F0F0F0F0F0F0E0E0C0C08000000000FB
:1005C0000000000000000080C0C0C4EAE2E2F6FCC7
:1005D000F8F0E0E0C0C08000000000000000000073
:1005E000000006070FF7974F27F70F0606000000D9
:1005F000000000000080C0C0C0C0C0800000010139
:10060000010101E0FFFFFFFFFFFFFFFE0000000010
:100610000000000000000000F0F8FE3F0F8783C3D9
:10062000434343434343C383870F3F7FFFFEF8E0C9
:100630000080E0F8FCFF3F1F0F076391B9B9B99143
:1006400061030307070F7FFFFEF8E000FE3F1F1C5A
:100650001C1CFC1CFE8D0406158DFE1CFC1C1C1CA9
:100660001F3FFE00001FFFFFFFFFFFFF0000000015
:1006700000000007FFFFFFFFFFFF9F0100000000D9
:10068000000000000010FEFFFFFF0000FF1110FF40
:10069000107050507010FF1011FF0000FFFFFFFF9F
:1006A0007EFFFFFFFF010000E0100804470414472D
:1006B000040810E0000000FFFFFFFF7E00000000C4
:1006C0000000FF00000103FF03010000FF00000025
:1006D00000000000000007FFFFFFFF010000000016
:1006E0000000000000F7FFFFFF9F0F0000C0C0E008
:1006F000C4C4FCFCF8F083071F7FF8F0E3C38283D7
:100700008282828282828382C3C3E0F8FF7F1F03DA
:100710000003071F7FFFF8F0E3C78F9F9F9F9F9FF6
:100720009F8F87C3E0F0FCFF7F1F030000000000E5
:100730000000FF00000000FF00000000FF000000BC
:1007400000000000000000077F7F0300000000E0C1
:100750003010588C0E0F0F0F0F0F0F0F0F0F0F0FC2
:100760000F0F0F0F070747A78E9C7001030707079E
:100770000F0F0F0F0F0F0707070303010000000003
:1007800000000000000001030707070F0F0F070715
:100790000707070703030100000000000000000036
:1007A00000001F20408000FF008040201F0000004C
:1007B000000000003C62C0C6EFFFFF7E3C0000016D
:1007C00022E2E2616060600020E0E0202020E0C0E2
:1007D0000020E0E0E0400000C0C0E06020206000B9
:1007E0000000000000000020E0E0606060C0C0C0C9
:1007F0000020E0E0200000E0E00020E0C0800000F9
:100800002060E0C000C0C06060202060000020E0E8
:10081000E06020202040010381C0E06060E0C080F3
:100820002060C08000002060E04000000000002048
:10083000203F3F2222222330003F3F2202030301B8
:1008400000101F3F3F200000071F183030303818BD
:1008500000000000000000003F3F2020303F1F1F2D
:1008600000001F1F3020203F1F00001F3F01030218
:100870000C1C3F07000F1F302022223E1E02003FAB
:100880003F222222233010070F0F10202020311F7B
:100890000F003F3F03020C1C3F000000000000005F
:1008A0000200090F0000030401000C00000000001A
:1008B000000000000000000000000000080B000223
:1008C00002020100090400000102020000052400E8
:1008D000100105240101010424020605240600017B
:1008E0000705810310004009040100020A0000000E
:1008F00007050202400000070583024000000403D0
:10090000090441726475696E6F204C4C430041725A
:100910006475626F790012010002000000404123FB
:10092000368000010102030112010002EF020140C2
:10093000412336800001010203011008000000007D
:100940007F8080404080807F000000001008000011
:1009500000008F898989898989F9000000001008C1
:1009600000000000FF8989898989818100000000D9
:10097000100800000000FF020408102040FF0000E3
:1009800000001E16000000E0F8FCFEFFFFFFFFFF66
:10099000FFFFFFFFFFFFFFFFFFFFFFFFFFFFFEFC6B
:1009A000F8E0000000FFFFFFFFFFFFFFFFFFFFFF7A
:1009B000FFFFFFFFFFFFFFFFFFFFFFFFFFFFFFFF47
:1009C0000000003F3F3F3F3F3F3F3F3F3F3F3F3FF4
:1009D0003F3F3F3F3F3F3F3F3F3F3F3F3F3F100B8A
:1009E00000FCFEFFFFFFFFFFFFFFFFFFFFFFFEFC1E
:1009F000000707070707070707070707070707078E
:100A00000101001E16000000E01804C231090503B0
:100A10000101010101C1310DE319050301010102C9
:100A20000418E0000000FF1F04FF04041F7D477D41
:100A30001F0404FF041FF51F047444444474041F7E
:100A4000FF0000003F38203F2020202020202020D1
:100A5000203F20382F3820202020202020383F1011
:100A60000B00FC22FD23F191F12121FD23FD232226
:100A7000FC00070407040404040404070407040436
:100A8000070906003C263D25253D263C05030006BA
:100A900005050600000000003E5B4F5B3E3E6B4FCD
:100AA0006B3E1C3E7C3E1C183C7E3C181C577D5700
:100AB0001C1C5E7F5E1C00183C1800FFE7C3E7FFAC
:100AC0000018241800FFE7DBE7FF30483A060E263F
:100AD00029792926407F050507407F05253F5A3C97
:100AE000E73C5A7F3E1C1C08081C1C3E7F14227FDA
:100AF00022145F5F005F5F06097F017F00668995B2
:100B00006A606060606094A2FFA29408047E04089A
:100B100010207E201008082A1C08081C2A08081E1D
:100B2000101010100C1E0C1E0C30383E3830060E03
:100B30003E0E06000000000000005F0000000700FD
:100B40000700147F147F14242A7F2A1223130864B9
:100B50006236495620500008070300001C2241005D
:100B60000041221C002A1C7F1C2A08083E0808009D
:100B7000807030000808080808000060600020103D
:100B80000804023E5149453E00427F4000724949F7
:100B900049462141494D331814127F1027454545D8
:100BA000393C4A49493141211109073649494936F9
:100BB000464949291E00001400000040340000008E
:100BC00008142241141414141400412214080201C0
:100BD0005909063E415D594E7C1211127C7F4949EC
:100BE00049363E414141227F4141413E7F49494989
:100BF000417F090909013E414151737F0808087F7F
:100C000000417F41002040413F017F081422417F85
:100C1000404040407F021C027F7F0408107F3E411D
:100C200041413E7F090909063E4151215E7F091974
:100C30002946264949493203017F01033F4040408C
:100C40003F1F2040201F3F4038403F63140814637B
:100C500003047804036159494D43007F4141410237
:100C600004081020004141417F0402010204404079
:100C7000404040000307080020545478407F284437
:100C800044383844444428384444287F3854545421
:100C90001800087E090218A4A49C787F0804047830
:100CA00000447D40002040403D007F10284400006B
:100CB000417F40007C047804787C08040478384440
:100CC000444438FC1824241818242418FC7C0804F4
:100CD0000408485454542404043F44243C40402015
:100CE0007C1C2040201C3C4030403C4428102844C0
:100CF0004C9090907C4464544C4400083641000071
:100D000000770000004136080002010204023C2680
:100D100023263C1EA1A161123A4040207A38545447
:100D200055592155557941215454784121555478CC
:100D30004020545579400C1E527212395555555960
:100D4000395454545939555454580000457C410085
:100D500002457D420001457C40F0292429F0F0281D
:100D60002528F07C545545002054547C547C0A09B5
:100D70007F4932494949323248484832324A484824
:100D8000303A4141217A3A42402078009DA0A07D2E
:100D900039444444393D4040403D3C24FF242448EC
:100DA0007E4943662B2FFC2F2BFF0929F620C08894
:100DB0007E090320545479410000447D4130484865
:100DC0004A32384040227A007A0A0A727D0D19317F
:100DD0007D2629292F28262929292630484D4020DB
:100DE000380808080808080808382F10C8ACBA2FB7
:100DF000102834FA00007B000008142A1422221460
:100E00002A14089500220095AA005500AAAA55AAFE
:100E100055AA000000FF00101010FF00141414FF6A
:100E2000001010FF00FF1010F010F0141414FC005C
:100E30001414F700FF0000FF00FF1414F404FC1466
:100E40001417101F10101F101F1414141F0010105F
:100E500010F0000000001F101010101F10101010D4
:100E6000F010000000FF101010101010101010FFF4
:100E700010000000FF140000FF00FF00001F10170B
:100E80000000FC04F414141710171414F404F400F4
:100E900000FF00F714141414141414F700F71414BA
:100EA00014171410101F101F141414F4141010F041
:100EB00010F000001F101F0000001F14000000FCB5
:100EC000140000F010F01010FF10FF141414FF14A1
:100ED0001010101F00000000F010FFFFFFFFFFF0D8
:100EE000F0F0F0F0FFFFFF0000000000FFFF0F0F29
:100EF0000F0F0F38444438447C2A2A3E147E0202E5
:100F00000606027E027E0263554941633844443C32
:100F100004407E201E2006027E020299A5E7A599C4
:100F20001C2A492A1C4C7201724C304A4D4D3030FB
:100F300048784830BC625A463D3E494949007E01E6
:100F400001017E2A2A2A2A2A44445F444440514A05
:100F5000444040444A51400000FF0103E080FF004C
:100F60000008086B6B083612362436060F090F0688
:100F7000000018180000001010003040FF010100B0
:100F80001F01011E00191D1712003C3C3C3C0000D3
:100F900000000006011501260137014A015D0172BA
:100FA0000188019F01B801D201EE010B022A024B18
:100FB000026E029302BA02E40210033F037003A41C
:100FC00003DC03170455049704DD0427057505C8E1
:100FD0000520067D06E0064907B8072D08A9082D5B
:100FE00009B9094D0AEA0A900B400CFA0CC00D91A0
:100FF0000E6F0F5A1053115B1272139A14D41520EE
:10100000178018F519801B231DDE1EB420A622B5FB
:1010100024E4263429A72B402E0031EA330037453B
:101020003ABC3D68414C456B49C84D68524F5780AA
:101030005C006210111213151617181A1C1D1F21BF
:10104000232527292C2E3134373A3E4145494E522B
:10105000575C62686E757B838B939CA5AFB9C4D0D7
:10106000DCE9F70408020110408040102040804075
:1010700080080204018040201002011080102040EE
:10108000402000000000250028002B002E00310029
:10109000040404040403040502020202040302021D
:1010A00002020606060606060404020202040403FF
:1010B0000100612211241FBECFEFDAE0DEBFCDBFF9
:1010C00027E0A8E9B1E001C01D92A637B207E1F719
:1010D00011E0A0E0B1E0E2EDF7E402C005900D926E
:1010E000A839B107D9F718E0CAE5D8E004C02197BC
:1010F000FE010E941523C935D107C9F70E94861A3F
:101100000C94E7230C9400004091AB015091AC018A
:101110002091A9013091AA0142175307B4F490918C
:10112000E8009570E1F39091E80092FD19C080937A
:10113000F1008091AB019091AC0101968F739927DA
:10114000892B19F48EEF8093E8008091AB01909188
:10115000AC0101969093AC018093AB0181E00895BE
:1011600080E00895CF92DF92EF92FF920F931F934A
:10117000CF93DF931F92CDB7DEB7182F062FE42E43
:10118000862F880F8E5F99830E94840883E00E94D7
:101190008408F12EC12E9981D92E8C2D8F1980179C
:1011A00098F4F601E7FE02C0849101C080810E949C
:1011B0008408182F80E00E9484088123FFEFCF1A53
:1011C000DF0A8111EACF01C081E00F90DF91CF915A
:1011D0001F910F91FF90EF90DF90CF900895DF92D5
:1011E000EF92FF920F931F93CF93DF93D82E8A0134
:1011F0007B01E40EF51EEB01CE15DF0571F0D7FE85
:1012000003C0FE01849101C088810E948408219658
:101210008111F2CF8FEF9FEF01C0C801DF91CF9115
:101220001F910F91FF90EF90DF900895615030F083
:101230002091F100FC0120830196F8CF289884E6E4
:101240008093C1010895CF92DF92EF92FF920F93A6
:101250001F93CF93DF936C017A018B01C0E0D0E044
:10126000CE15DF0589F0D8016D918D01D601ED9184
:10127000FC910190F081E02DC6010995892B11F4B4
:101280007E0102C02196ECCFC701DF91CF911F9163
:101290000F91FF90EF90DF90CF900895CF93DF9361
:1012A0001F92CDB7DEB76983DC01ED91FC9102801E
:1012B000F381E02D41E050E0BE016F5F7F4F099563
:1012C0000F90DF91CF91089583E08093E9008091A2
:1012D000F200882319F08AE38093E8000895FC0166
:1012E0008485958597FD0BC09FB7F89482E0809325
:1012F000E9008091F2009FBF90E0019608959FB7AA
:10130000F89482E08093E9008091F2009FBF90E022
:1013100008950E941B230F931F93CF93DF931F9277
:10132000CDB7DEB782E0898342E450E06CEB78E031
:1013300080E80E94EF080E94721ADC0112960D915B
:101340001C9113970115110569F0D801ED91FC91DD
:101350000280F381E02DBE016F5F7F4FC8010995C8
:1013600097FF07C089810F90DF91CF911F910F9157
:101370000895F80100851185E5CFCF93DF931F9283
:10138000CDB7DEB7FC018485958597FD05C02FEFAD
:101390003FEF358724870BC0CE0101960E94481A83
:1013A000019719F4898190E002C08FEF9FEF0F90B1
:1013B000DF91CF9108950F931F93CF93DF931F92E7
:1013C000CDB7DEB78C01FC018485958597FF0EC0F3
:1013D000CE0101960E94481A019719F4298130E044
:1013E00002C02FEF3FEFF80135872487F80184858D
:1013F00095850F90DF91CF911F910F9108951F92C6
:101400000F920FB60F9211248F939F938091E1005A
:101410009091E100937F9093E10083FF0FC01092C1
:10142000E90091E09093EB001092EC0092E390932E
:10143000ED001092C20198E09093F00082FF20C06E
:1014400093E09093E9009091F200992319F09AE3C8
:101450009093E8009091AD01992339F09091AD01FE
:1014600091509093AD01992389F19091C1019923F5
:1014700039F09091C10191509093C101992341F1AC
:1014800084FF10C08091E2008E7E81608093E20034
:101490008091E1008F7E8093E100809199018E7EA2
:1014A000806111C080FF16C08091E2008E7E806155
:1014B0008093E2008091E1008E7E8093E100809134
:1014C00099018E7E81608093990104C05D9ACDCF91
:1014D000289AD6CF9F918F910F900FBE0F901F909B
:1014E00018951F920F920FB60F921124CF92DF9290
:1014F000EF92FF920F931F932F933F934F935F931E
:101500006F937F938F939F93AF93BF93EF93FF93CB
:10151000CF93DF93CDB7DEB76C97DEBFCDBF109210
:10152000E9008091E80083FFFAC168E0CE014596AA
:101530000E94160982EF8093E8008D8987FF05C01D
:101540009091E80090FFFCCF03C09EEF9093E800DD
:10155000982F907609F0C6C09E892F89188D911119
:101560000CC0803829F480919A018093F10002C068
:101570001092F1001092F10047C1422F50E0512B20
:10158000913051F4811140C14130510509F03CC105
:1015900080919A018D7F0BC0933061F4811134C129
:1015A0004130510509F030C180919A0182608093E9
:1015B0009A012AC1953041F48091E80080FFFCCF68
:1015C00020682093E30020C1963009F05FC0EB8CC7
:1015D000FC8C1092E9001092AC011092AB01123019
:1015E00091F51092AA011092A9010E948B0999E02D
:1015F000BE016F5F7F4FDB01E92F1D92EA95E9F78E
:1016000099831A8391E09E8390EA98879AEF99874D
:101610002091AB013091AC01275F3F4F3C832B837E
:101620008D831092E9001092AC011092AB01F09200
:10163000AA01E092A90149E050E080E00E94EF0891
:101640000E948B09E1C0F092AA01E092A9010E94D8
:10165000721ADC011296ED90FC901397E114F104DC
:1016600009F4C0C0D701ED91FC910480F581E02D13
:10167000BE016B5E7F4FC7010995009719F00CF012
:10168000C3C0C6C0F701E084F184E8CF973009F405
:10169000BFC0983021F481E08093F100B5C099304B
:1016A00009F0B2C0837009F0B3C0E1E5F1E081E078
:1016B00021E036E39081992361F08093E900209343
:1016C000EB0091919093EC003093ED008F5F8730A9
:1016D00089F78EE78093EA001092EA008F89809361
:1016E000C20192C08B8D9C8D1092E9001092AC01CA
:1016F0001092AB019093AA018093A901898D811169
:1017000056C08E899D89913A59F4813209F080C082
:1017100047E050E064E071E080E00E94EF0874C0B0
:10172000913209F075C0833289F4888D90E0982F4A
:1017300088272F89822BA0E0B0E08093000190934E
:101740000101A0930201B09303015EC0803269F4ED
:101750008091E80082FFFCCF67E084E091E00E9486
:1017600016098BEF8093E80006C0823209F04CC066
:101770008F8980930B0180919801882319F0EEEFF7
:10178000FAE002C0E0E0F8E08091040190910501E8
:10179000A0910601B0910701803B9440A105B105DD
:1017A00009F088C080910B0180FFA0C083C00E9417
:1017B000721ADC0112960D911C91139701151105F7
:1017C00039F1D801ED91FC910190F081E02DBE013D
:1017D0006B5E7F4FC8010995811116C0F801008525
:1017E0001185ECCF1130C1F0133091F48F8988232B
:1017F00009F455C08230E9F440E867E08EE099E0F2
:101800000E94B208882321F08EEF8093E80087C001
:1018100081E28093EB0083C08B8D9C8D089711F43F
:101820001093A8018091A801811136C066E179E08A
:1018300038C0813029F440E86BE082E099E0E0CFE5
:10184000833031F70E94721ADC011296ED90FC9001
:1018500013978E010F5F1F4F6801E114F10479F0B7
:10186000D701ED91FC910680F781E02DB801C70109
:101870000995080F111DF701E084F184EECFD8011E
:101880001C92F60101900020E9F73197BF016C1915
:101890007D0940E0C601B4CF68E279E002C06EEF96
:1018A00078E06115710509F4B3CFFB01449150E074
:1018B00080E833CF0FB6F894A895809160008861D6
:1018C00080936000109260000FBEA895EE3F2AE062
:1018D000F20739F08091FE0A9091FF0A918380838C
:1018E00093CF1092FF0A1092FE0A8ECFEE3F8AE04D
:1018F000F80731F0808191819093FF0A8093FE0A6E
:1019000087E797E7918380839BE088E10FB6F8949F
:10191000A895809360000FBE9093600075CF6C9681
:101920000FB6F894DEBF0FBECDBFDF91CF91FF9110
:10193000EF91BF91AF919F918F917F916F915F9147
:101940004F913F912F911F910F91FF90EF90DF905A
:10195000CF900F900FBE0F901F901895EF92FF92AF
:101960000F931F93CF93DF938C017B01C0E0D0E0F6
:10197000F701EC0FFD1F6491662361F0D801ED9132
:10198000FC910190F081E02DC8010995892B11F09F
:101990002196EECFCE01DF91CF911F910F91FF9055
:1019A000EF900895362F90E0FC01E356F74F4491F5
:1019B000FC01ED59FF4E2491FC01E057FF4E84914C
:1019C000882309F451C04423E1F150E0FA01319732
:1019D000EF30F105B0F5EA5AFF4F0C9415239091C2
:1019E00080009F7707C0909180009F7D03C09091F9
:1019F0008000977F9093800024C094B59F7702C0A9
:101A000094B59F7D94BD1DC0909190009F7707C0B5
:101A1000909190009F7D03C090919000977F90934C
:101A200090000FC09091C0009F7703C09091C000BC
:101A30009F7D9093C00005C09091C200977F9093C6
:101A4000C200E82FF0E0EE0FFF1FEE57FF4EA5910A
:101A5000B4918FB7F894EC91311103C020952E23E7
:101A600001C02E2B2C938FBF0895CF93DF9390E06E
:101A7000FC01ED59FF4E2491FC01E057FF4E84918B
:101A8000882361F190E0880F991FFC01E856FE4F12
:101A9000C591D491FC01EE57FF4EA591B49161110F
:101AA00009C09FB7F8948881209582238883EC91A0
:101AB0002E230BC0623061F49FB7F8943881822FD7
:101AC000809583238883EC912E2B2C939FBF06C097
:101AD0008FB7F894E8812E2B28838FBFDF91CF91A9
:101AE00008951F93CF93DF93182FEB0161E00E94BD
:101AF000350D209711F460E004C0CF3FD10539F4D3
:101B000061E0812FDF91CF911F910C94D20CE12FD6
:101B1000F0E0E356F74FE4914E2F50E0FA01319791
:101B2000EF30F10508F06CC0EB59FF4F0C94152312
:101B300084B5806884BDC7BD68C084B5806284BD3B
:101B4000C8BD63C080918000806880938000D0937E
:101B50008900C093880059C0809180008062809382
:101B60008000D0938B00C0938A004FC0809180008A
:101B7000886080938000D0938D00C0938C0045C016
:101B800080919000806880939000D0939900C093DA
:101B900098003BC080919000806280939000D09329
:101BA0009B00C0939A0031C0809190008860809320
:101BB0009000D0939D00C0939C0027C08091C000EE
:101BC00080688093C0008091C0008F7B8093C000AC
:101BD000C093CF001AC08091C00080628093C00083
:101BE000C093D00012C08091C20088608093C20070
:101BF0008091C2008B7F8093C200C093D20005C049
:101C0000C038D1050CF07CCF76CFDF91CF911F91FA
:101C100008958F929F92AF92BF92CF92DF92EF92F0
:101C2000FF926B017C010E94F50E4B015C01C11417
:101C3000D104E104F104F1F00E94F50EDC01CB01C6
:101C400088199909AA09BB09883E9340A105B105E5
:101C500070F321E0C21AD108E108F10888EE880E7D
:101C600083E0981EA11CB11CC114D104E104F1044D
:101C700019F7DDCFFF90EF90DF90CF90BF90AF903E
:101C80009F908F9008958F929F92AF92BF92CF9224
:101C9000DF92EF92FF920F931F93CF93DF935C013C
:101CA0006B018A0180910B01882309F45EC0809149
:101CB000C201882309F459C08091990180FF05C0B1
:101CC0008091E00082608093E000E8018AEFF82EC6
:101CD00093E0E92E2FE3822E3AE3932E209709F426
:101CE0003DC08FB7F894E092E9009091E80095FF2D
:101CF00006C09091F200282D291B922F01C090E080
:101D00008FBF91110AC0FA94FF2079F161E070E071
:101D100080E090E00E94090EE1CF292F30E0C21749
:101D2000D3070CF49C2F8FB7F894E092E900209130
:101D3000E80025FF11C0292F30E0C21BD30BF601AC
:101D4000915020F041914093F100FACFC20ED31E82
:101D50009091E80095FF13C08FBFC0CF5D9884E6D7
:101D60008093AD011016110644F081E090E0F5017A
:101D70009383828380E090E005C0C80103C0909205
:101D8000E800EACFDF91CF911F910F91FF90EF9084
:101D9000DF90CF90BF90AF909F908F90089567FD98
:101DA00018C047FD16C0062E000C770BDC011196FB
:101DB0002C911197E22FF0E06E177F0754F41296E2
:101DC000EC91F0E0A42F042E000CBB0BAE17BF0764
:101DD00014F081E008954203A0011124680F791FD7
:101DE000FB01E40FF51F838108953FB7F8948091BC
:101DF000BD019091BE01A091BF01B091C00126B577
:101E0000A89B05C02F3F19F00196A11DB11D3FBF32
:101E1000BA2FA92F982F8827820F911DA11DB11DC0
:101E2000BC01CD0142E0660F771F881F991F4A95BC
:101E3000D1F708951F920F920FB60F9211242F938E
:101E40003F938F939F93AF93BF9380919C01909109
:101E50009D01A0919E01B0919F013091BC0123E0B2
:101E6000230F2D3720F40196A11DB11D05C026E8D2
:101E7000230F0296A11DB11D2093BC0180939C01EC
:101E800090939D01A0939E01B0939F018091BD010D
:101E90009091BE01A091BF01B091C0010196A11D1A
:101EA000B11D8093BD019093BE01A093BF01B0937B
:101EB000C001BF91AF919F918F913F912F910F9052
:101EC0000FBE0F901F9018958FB12CB193B130E0D9
:101ED0002095309520743327A90123E05595479527
:101EE0002A95E1F7292F30E020953095207133278E
:101EF0003595279535952795242B8095807F822BC6
:101F00000895FC0121912EBD9C5F21910DB407FE27
:101F1000FDCF2EBDE817F907C1F70DB407FEFDCFC1
:101F20000895CF92DF92EF92FF920F931F93CF937A
:101F3000E82FF0E0E155FF4EC491E62FF0E060336A
:101F400030F4ED5CFF4EE4910E2F10E006C0EE0F72
:101F5000FF1FED5CF04F059114916801E12CF12C0D
:101F600060E074E284EF90E0A70196010E94842370
:101F7000BA01A90141505109610971094115510581
:101F800081E06807710580F060E970ED83E090E022
:101F9000A70196010E948423BA01A9014150510969
:101FA0006109710983E001C081E0C130C9F0C3302B
:101FB00031F590919100987F892B809391005093F7
:101FC0009900409398001093BB010093BA0181E0FF
:101FD0008093B901809171008260809371000FC07D
:101FE00090918100987F892B809381005093890084
:101FF0004093880080916F00826080936F00CF9142
:102000001F910F91FF90EF90DF90CF9008951F9256
:102010000F920FB60F9211242F933F938F939F939C
:10202000AF93BF93EF93FF938091B201882309F49C
:102030004DC08091AE019091AF01A091B001B091DF
:10204000B101892B8A2B8B2B51F18091C601E09134
:10205000C701F091C8019081892780838091AE01EA
:102060009091AF01A091B001B091B101181619067D
:102070001A061B06A4F58091AE019091AF01A091C4
:10208000B001B091B1010197A109B1098093AE01EE
:102090009093AF01A093B001B093B10120C0109212
:1020A000B20180916F008D7F80936F009091C60187
:1020B000E091C701F091C8018081282F30E0892F7D
:1020C00090E0809590958223932308C08091C6016B
:1020D000E091C701F091C801908189278083FF9129
:1020E000EF91BF91AF919F918F913F912F910F9061
:1020F0000FBE0F901F901895E82FF0E0E155FF4EAE
:10210000E491E13019F0E33069F0089580916F00B7
:102110008D7F80936F009091C601E091C701F0918F
:10212000C80108C01092B9019091C301E091C401A7
:10213000F091C5018081282F30E0892F90E08095B3
:10214000909582239323808308951F920F920FB658
:102150000F9211242F933F934F935F936F937F932D
:102160008F939F93AF93BF93EF93FF938091B901A8
:10217000882349F08091C301E091C401F091C50129
:1021800090818927808380919B01882309F493C0E3
:102190008091B5019091B601A091B701B091B801BD
:1021A000892B8A2B8B2B09F486C08091B5019091E5
:1021B000B601A091B701B091B8010197A109B10989
:1021C0008093B5019093B601A093B701B093B80185
:1021D000892B8A2B8B2B09F06EC0E091B301F09113
:1021E000B401BF016F5F7F4F7093B4016093B3017F
:1021F0004491942F907F842F8F70903819F40E940F
:102200007C10EBCF903981F43296F093B401E093D7
:10221000B301FB0164919091C9018917F0F667FD44
:10222000DCCF0E94910FD9CF903E29F41092B401D7
:102230001092B301D2CF903F19F410929B013BC092
:1022400097FDCBCF3296F093B401E093B301FB013D
:10225000249130E0342BA091BA01B091BB010E94CF
:10226000D8236C507E4F8F4F9F4F28EE33E040E0D5
:1022700050E00E94B6232093B5013093B6014093FD
:10228000B7015093B8018091B5019091B601A0912A
:10229000B701B091B801892B8A2B8B2B61F481E0B7
:1022A00090E0A0E0B0E08093B5019093B601A093D8
:1022B000B701B093B801FF91EF91BF91AF919F919A
:1022C0008F917F916F915F914F913F912F910F90DF
:1022D0000FBE0F901F9018952F923F924F925F92D2
:1022E0006F927F928F929F92AF92BF92CF92DF9226
:1022F000EF92FF920F931F93CF93DF93CDB7DEB78B
:102300002A970FB6F894DEBF0FBECDBF9E838D8394
:10231000202E312CCB01820D931D97FD31C16038E9
:1023200071050CF02DC1CA018E0D911D97FD28C1BC
:10233000403451050CF024C1DA0157FF04C0AA272C
:10234000BB27A41BB50BA770BB27CA0157FD079677
:1023500013E0959587951A95E1F757FF07C0019708
:1023600048E050E05A01AA1ABB0AD501EE2DE695C5
:10237000E695E695AE2EB12C4E2D477019F00FEF75
:10238000A01AB00AAC015695542F4427579547958B
:10239000460F571F8501080F191F1C830B83412C03
:1023A000512CF8E0EF2EF12C5701AA1ABB0ABA8281
:1023B000A982AB80BC808A159B0509F4E1C08830F6
:1023C000910509F4DDC08F3F0FEF90070CF4CEC0EC
:1023D0003A0110E8610E711C8A010C561F4FAD8046
:1023E000BE80A00EB11EB886AF824B0100E010E0A7
:1023F000021513050CF0BAC0E0E88E16910409F43A
:10240000B5C097FCA8C08F3FFFEF9F0709F4B4C089
:10241000F801E40DF51DEF80F884E618F708AA240A
:10242000A394E20FF31FCA1013C0E491E40EF51E4B
:10243000F0E05F010A2E02C0AA0CBB1C0A94E2F76E
:10244000BA86A986F701B080E985FA85EB292BC009
:10245000C11017C0E491E40EF51EF0E00A2E02C090
:10246000EE0FFF1F0A94E2F75F01A094B094BA86C2
:10247000A986F701A080B12CE985FA85AE22BF229A
:1024800013C0E491E40EF51EF0E05F010A2E02C0D5
:10249000AA0CBB1C0A94E2F7BA86A986F701B080A1
:1024A000E985FA85EB255F01F701A082109709F411
:1024B00052C08730910509F44EC0F801E40DF51DB6
:1024C000AA24A394CA1011C0E20FF31FE491EE2EC8
:1024D000F12C5701098002C0B594A7940A94E2F741
:1024E000EF81F885F080AF2835C0EF80F884E618DA
:1024F000F708E20FF31FC11018C0E491E60CF71CB7
:10250000AE2EB12C098002C0B594A7940A94E2F7CC
:10251000F501E095F095FA87E987F701A080B12CE5
:10252000E985FA85AE22BF2214C0E491E60CF71CBF
:10253000AE2EB12CF501098002C0F595E7950A94FD
:10254000E2F7FA87E987F701B080E985FA85EB259C
:102550005F01F701A0820F5F1F4FEF81F885319671
:10256000F887EF83FFEF8F1A9F0A42CF0196420C44
:10257000531C40585F4F1DCF109709F09ECFEBCFF3
:102580002A960FB6F894DEBF0FBECDBFDF91CF9174
:102590001F910F91FF90EF90DF90CF90BF90AF9081
:1025A0009F908F907F906F905F904F903F902F9073
:1025B00008956038710518F54034510500F5A42FD1
:1025C000A695A695A695B0E047705527B695BA2F63
:1025D000AA27B795A7956A0F7B1FFC01E60FF71F87
:1025E00081E090E001C0880F4A95EAF7222319F0B4
:1025F0009489892B03C0809594898923848B0895BD
:102600002F923F924F925F926F927F928F929F9202
:10261000AF92BF92CF92DF92EF92FF920F931F93F0
:10262000CF93DF93CDB7DEB72A970FB6F894DEBF0E
:102630000FBECDBF6A3091F4FC01E85EFB4F4081D4
:1026400032972081318158E0459F200D311D1124A2
:1026500031832083329711821082C1C06D3009F41A
:10266000BEC09A878987885E9B4F9C838B83DC01E1
:102670002C90E985FA85EA5EFB4F60807180E985E0
:10268000FA85EC5EFB4FFA83E98300811181003803
:102690001105D4F0AB81BC812C91422F50E0E9812F
:1026A000FA8180819181F6E02F9F800D911D112488
:1026B000A981BA818D939C93E985FA85E75EFB4FEA
:1026C000208121115EC08BC0B0E46B16710414F739
:1026D000C801E5E02E9E800D911D112418161906E3
:1026E000CCF6422C512CC301F8E02F9E800D911D99
:1026F00011241816190674F655E0659F90011124EF
:102700003F832E83E12CF12C85E0E816F10441F0A3
:10271000EE81FF81EE0DFF1DED56F54F349001C0A7
:10272000312C630138E0932D91709D834801882DF1
:10273000801B8215B0F456018A2D8C19821568F41D
:102740002D81A501B40189859A8538870E94D91207
:10275000AFEFAA1ABA0A3885EFCFBFEF8B1A9B0AE0
:10276000E6CF36943150C40CD51C3111DCCFEFEFDD
:10277000EE1AFE0A040D151DF6E0EF16F10421F61F
:1027800089CF6AEF64039001659F300D11242058B2
:102790003F4F281739071CF5A985BA85ED91FC91A3
:1027A00011970190F081E02D6AE0CD012A960FB6D5
:1027B000F894DEBF0FBECDBFDF91CF911F910F9177
:1027C000FF90EF90DF90CF90BF90AF909F908F9051
:1027D0007F906F905F904F903F902F9009942A9632
:1027E0000FB6F894DEBF0FBECDBFDF91CF911F9122
:1027F0000F91FF90EF90DF90CF90BF90AF909F90A0
:102800008F907F906F905F904F903F902F900895A2
:10281000AF92BF92CF92DF92EF92FF920F93CF933E
:10282000DF936C015B017A01E20EF11CEA0157FFB4
:102830000DC0C0E0D0E00AC0C417D5077CF4202F3B
:10284000AE01B501C6010E94D9122196A70181E40B
:10285000E816F1048CF340E450E0EECFDF91CF9125
:102860000F91FF90EF90DF90CF90BF90AF900895C1
:102870008D579F4F203188F4E22FF0E0DF01AA0F3F
:10288000BB1FEA0FFB1FE80FF91F3181361303C08E
:102890003281341721F02F5FEDCF80E0089581E081
:1028A00008952F923F924F925F926F927F928F92F4
:1028B0009F92AF92BF92CF92DF92EF92FF920F93CF
:1028C0001F93CF93DF93CDB7DEB7A0970FB6F894E1
:1028D000DEBF0FBECDBF2C0185E0E7E5F1E09E0134
:1028E0002F5F3F4F3F832E83D90101900D928A9530
:1028F000E1F7398B288B1A8A58898E81581B598F9A
:10290000A889B9892D90B98BA88B3C90F22CF694AC
:10291000832D869520E22F1990E2981B3F2D330FCF
:10292000F30E3F2D3195305E3B87D82EDD0CD80E4F
:102930003D2D319570E2D72ED30EB32DB695B695B9
:10294000B8A31A86E92FE81B8E2F830D482F880F16
:10295000550B5B8F4A8FA32DB0E0BC8BAB8B692EE0
:10296000712CE22FF0E0FD87EC87222D30E03D8FC7
:102970002C8FE20FF31FFE8BED8BA60DB71DBF8FC3
:10298000AE8F8A853A89830F7201E80EF11CD70158
:1029900016968C91882309F4A0C0BA85B1113DC068
:1029A000F7018781811173C0222D2319FB852F0F19
:1029B0002D19032DA3018B889C888D0C911CD7FCAD
:1029C0009A94B401D2018D919C910E9402190C85B8
:1029D0001D85AC8CBD8CBB85AB0EB11CB7FDBA940C
:1029E0009501A301B401F201808191810E94161822
:1029F0000E8D1F8D94014D895E89B501D2018D9197
:102A00009C910E9416180D891E8995014C855D8543
:102A1000B501F2018081918138C0FA85F230B9F5B3
:102A2000D70115968C91811132C0032D2D2DBB85B8
:102A30002B1BA301AB2EBB0FBB08B501F20180819C
:102A400091810E94021983018D2C0D2C000C990894
:102A500094014C855D85B501D2018D919C910E94B8
:102A600016180E8D1F8D94014D895E89B501F201F6
:102A7000808191810E9416180D891E8995014C85CF
:102A80005D85B501D2018D919C910E941618F701C8
:102A90008185811177C0AD2C0D2C000CBB081B89E2
:102AA0008B899C898A0D9B1D813491050CF01FE058
:102AB000032D212FA301B501D2018D919C910E947C
:102AC000021921E0210F01E0030DA301B501F2017C
:102AD000808191810E949F1855C0D70151968C9199
:102AE000882309F44FC088A18D0D80340CF04AC0B2
:102AF000B98DB23059F0B33081F020E03AE0B13016
:102B000099F461E8A62E6AE0B62E12C02EED39E0E7
:102B10005FE5A52E5AE0B52E0BC022E839E043E070
:102B2000A42E4AE0B42E04C09CE8A92E9AE0B92E47
:102B3000F5013196F987E887E490F5010491882E34
:102B4000880F9908D2010D90BC91A02DB88FAF8B42
:102B50002E5F3F4FC12C4A8D5B8DB401CD010E9489
:102B60006C11E885F985E490F501049195012E5FDB
:102B70003F4FCC24C3944A8D5B8DB4018F89988DCF
:102B80000E946C11D30CFB85F20DFB872A852F5F09
:102B90002A87233009F0F5CE3A893D5F3A8B3C30E5
:102BA00009F0AACE00E420E140E050E060E470E0EB
:102BB000D2018D919C910E94021920E440E050E0E6
:102BC00060E070E0F201808191810E949F18D20143
:102BD000ED91FC91DF01A35EBB4F8C91853009F430
:102BE00041C0D20114968D919C911597DC011796E6
:102BF0009C91913079F048F0923089F0933099F4BB
:102C000020E739E03F872E870EC04EE559E05F8709
:102C10004E8709C08CE499E09F878E8704C0AAE3A1
:102C2000B9E0BF87AE872E853F8546E060E2CF01E1
:102C3000A0960FB6F894DEBF0FBECDBFDF91CF9147
:102C40001F910F91FF90EF90DF90CF90BF90AF90CA
:102C50009F908F907F906F905F904F903F902F90BC
:102C60000C94EB17A0960FB6F894DEBF0FBECDBF45
:102C7000DF91CF911F910F91FF90EF90DF90CF9058
:102C8000BF90AF909F908F907F906F905F904F908C
:102C90003F902F9008952F923F924F925F926F92A4
:102CA0007F928F929F92AF92BF92CF92DF92EF92DC
:102CB000FF920F931F93CF93DF9300D01F92CDB756
:102CC000DEB76C01DC011496ED91FC9115978681BD
:102CD000882309F473C027816184408412968D9003
:102CE0009C9013975601B1E1AB0EB11C0CE511E0BD
:102CF000E8E6F1E0FB83EA835E2EFCE05F0E213024
:102D000079F048F0223099F02330C1F4D801EC90EA
:102D1000EA81FB8111C0AA81BB81EC90F80105C05A
:102D2000D801EC90E194EA81FB81F08007C0AA8190
:102D3000BB81EC90E194F801F080F1943F2C360CCB
:102D40007E2C740C432D672DC40129830E94CF0E65
:102D500091E02981811101C090E0F5013B979083BA
:102D6000D5011C92911109C0432D672DC4012983FF
:102D70000E943814F50180832981FFEFAF1ABF0A42
:102D80008A819B8101969B838A830F5F1F4F581214
:102D9000B6CFD60150961C9250971D968C911D97D8
:102DA000882341F01A961C921A9716961C92169731
:102DB00018961C92F601828581111782C6010E9425
:102DC000511410E0A12CB12CE0E4EE2EF12C912C4A
:102DD000412F692DD60112968D919C9113970E94D7
:102DE000CF0E882349F009E029E0A501B701F601DB
:102DF000808191810E949F189394F8E0EF0EF11C5E
:102E000088E09812E5CF98E0A90EB11C1F5F18303A
:102E1000D9F6D6011496ED91FC9115978085880F0F
:102E2000880F880F20E4280F62E0662E620E8185ED
:102E3000880F880F880F72E0A72EA80E9781913017
:102E400099F060F09230B9F09330E9F48A5F94E041
:102E5000892E820E2A5F4A2CA82E19C056E0452ED4
:102E6000480E2A5F8C5F12C046E0842E820E2C5FD3
:102E70008A5F4A2C0CC02A5F34E0432E480E8A5FDA
:102E8000862C622E04C08A2D262D4A2C862CE82EF4
:102E9000F12C222E312CB12C712C87019101A5012E
:102EA000B301F601808191810E941618512C912C5A
:102EB0009101A201B401D6018D919C910E94161836
:102EC00082019401A501B301F601808191810E94E4
:102ED000161800E420E440E050E060E470E0D60121
:102EE0008D919C910E949F180F900F900F90DF91F1
:102EF000CF911F910F91FF90EF90DF90CF90BF90F7
:102F0000AF909F908F907F906F905F904F903F9089
:102F10002F900895FF920F931F93CF93DF938C010F
:102F2000C62FFC018781813051F038F0823049F0A2
:102F3000833061F4962F919507C0862F08C0962F95
:102F400003C0862F819503C080E002C080E090E03E
:102F5000F801D185D90FF084F80E4D2F6F2D8281A5
:102F600093810E94CF0E811105C0F801F086D187B0
:102F700081E086836C2FCC0F770B77FF03C07195B0
:102F800061957109F8018285680F6287DF91CF91A1
:102F90001F910F91FF900895FC0181E0868383814A
:102FA000882359F020813181D901A45EBB4F9481DF
:102FB0009C93F901E35EFB4F80830895FC01E65E7C
:102FC000FB4F2081262329F031968081682381E000
:102FD00009F080E00895CF92EF920F93F9010491E8
:102FE0003196E4902E5F3F4F042E000C550B7E2D42
:102FF000E7FE02C071E07E0D7595471B510977FD14
:103000005395062E000C770BE02F07FF02C0E1E07E
:10301000E00FE5956E1B7109E7FD7395CC24C39411
:103020000E946C110F91EF90CF9008953F924F92B4
:103030005F926F927F928F929F92AF92BF92CF9248
:10304000DF92EF92FF920F931F93CF93DF933C0198
:10305000EB017A0169019801241B350B37FF03C08E
:10306000319521953109C6018C1B9D0B97FF03C03B
:10307000919581959109332433948217930714F025
:10308000312C0AC09C2D8D2D6801092F182F9C2FE3
:103090008D2FE701E92EF82ECC16DD0654F49E2D77
:1030A0008F2D7801092F182F9C2F8D2FE601C92E07
:1030B000D82E26014C1A5D0A48018E189F0897FEEB
:1030C00003C0919481949108520157FE03C08FEF81
:1030D000A81AB80AB594A794E016F10614F00FEFF9
:1030E00001C001E0002E000C110BCC16DD06ACF087
:1030F00021E0332019F0AE01B70102C0A701BE01E3
:10310000C3010E94D912A818B908B7FE04C0E00E86
:10311000F11EA40CB51C2196E8CFDF91CF911F9131
:103120000F91FF90EF90DF90CF90BF90AF909F9066
:103130008F907F906F905F904F903F9008954F9247
:103140005F926F927F928F929F92AF92BF92CF9237
:10315000DF92EF92FF920F931F93CF93DF937C0147
:103160005B016A01102F2B01420E511CEB0177FF0E
:1031700002C0C0E0D0E04E01320181E8481651049F
:103180001CF080E8682E712C8614970454F421E01A
:10319000A601B401C7010E94D9128FEF881A980ABC
:1031A000EBCF4601810E911C81E0881A9108C6156B
:1031B000D70544F421E0A401BE01C7010E94D91241
:1031C0002196F5CF01E0212FA601B501C7010E948C
:1031D0000814B20161507109212FA601C7010E9494
:1031E0000814DF91CF911F910F91FF90EF90DF9026
:1031F000CF90BF90AF909F908F907F906F905F9097
:103200004F900895AF92BF92CF92DF92EF92FF92CC
:103210000F931F93CF93DF936C015A01102FEB0193
:103220007B01E20EF11CCE15DF054CF400E0212FEE
:10323000A501BE01C6010E9408142196F4CFDF91BA
:10324000CF911F910F91FF90EF90DF90CF90BF90A3
:10325000AF900895EF92FF920F931F93CF93DF9358
:103260007C01C62F842F241740F4622F0E9409236B
:103270001CE3819F102D112401C01CE3D0E005E068
:103280002CE342E050E0BE01F701808191810E9471
:1032900002192CE342E050E0BE01F70180819181E8
:1032A0000E949F189E01210F311D17FD3A9504E0E1
:1032B00010E044E050E0BE01F701808191810E945E
:1032C0001618DF91CF911F910F91FF90EF90089505
:1032D000BC01009791F0FC0101900020E9F73197C3
:1032E000AF01481B590BE091CA01F091CB0102805C
:1032F000F381E02D8AEC91E0099480E090E008955C
:103300008F929F92AF92BF920F931F93CF93DF93B1
:10331000CDB7DEB7A1970FB6F894DEBF0FBECDBF15
:1033200019A2423008F44AE08E010F5D1F4F842E2F
:10333000912CA12CB12CA50194010E94B623E62F5B
:10334000B901CA0101501109EA3014F4E05D01C06D
:10335000E95CD801EC93232B242B252B61F7C801C2
:103360000E946819A1960FB6F894DEBF0FBECDBFBC
:10337000DF91CF911F910F91BF90AF909F908F9051
:10338000089520E08CE392E0B22FB111BFEFFC0171
:103390000024B193B193B193B1930394D1F70895FD
:1033A000CF93DF939091C901923009F46EC0C82F7A
:1033B000292F30E0F901E155FF4ED491F901EE5A81
:1033C000F94F80839F5F9093C90161E00E94350DA2
:1033D000D13019F0D33039F158C0109280001092DA
:1033E00081008091810088608093810080918100BC
:1033F0008160809381008C2F90E0FC01E057FF4EAC
:10340000E491F0E0EE0FFF1FEE57FF4E259134914F
:103410003093C8012093C701FC01ED59FF4E849100
:103420008093C60132C0109290001092910080915A
:1034300091008860809391008091910081608093D9
:1034400091008C2F90E0FC01E057FF4EE491F0E0FA
:10345000EE0FFF1FEE57FF4E259134913093C501BB
:103460002093C401FC01ED59FF4E84918093C30168
:103470008091C901882321F06CE380E00E94910FC4
:1034800080E0DF91CF910C947C10DF91CF91089573
:10349000FC018091C201811103C08FEF9FEF08955D
:1034A0009FB7F89482E08093E9002091F20030E029
:1034B0001216130614F421E030E02115310559F0FD
:1034C000289884E68093C1018091F10080838091E7
:1034D000F200882319F09FBFC90108958BE68093FD
:1034E000E800F9CF80914A0681110DC082E08093F7
:1034F000460684E0809347061092490610924806DB
:1035000081E080934A0686E496E00895CF93DF93A6
:10351000CDB7DEB72A970FB6F894DEBF0FBECDBF8A
:10352000789484B5826084BD84B5816084BD85B59E
:10353000826085BD85B5816085BD80916E008160AA
:1035400080936E0010928100809181008260809350
:103550008100809181008160809381008091800052
:1035600081608093800080919100826080939100BF
:1035700080919100816080939100809190008160A2
:10358000809390008091C10084608093C1008091FD
:10359000C10082608093C1008091C10081608093EE
:1035A000C1008091C30081608093C3008091C000FE
:1035B00082608093C0008091C20081608093C200CD
:1035C00080917A00846080937A0080917A00826092
:1035D00080937A0080917A00816080937A00809154
:1035E0007A00806880937A001092C20110929A014A
:1035F000109299018091D70081608093D70080EA72
:103600008093D80089B5806189BD89B5826089BD04
:1036100009B400FEFDCF61E070E080E090E00E9420
:10362000090E8091D8008F7C80618093D8008091B2
:10363000E000807F8093E0008091E1008E7E8093A7
:10364000E1008DE08093E200559A209AEEEFFFE7CB
:10365000859194918B3F9C4D19F481E08093980162
:103660001FB7F8948091A101811127C0E1EAF0E130
:103670008491E4E7F0E19491E82FF0E0EE0FFF1F72
:10368000E856FE4FA591B491EC91E92321F461E055
:1036900081E10E94D20C61E081E10E94350D8CB580
:1036A00080618CBD8CB580648CBD61E08FE00E9430
:1036B000350D61E080E10E94350D8091A1018F5FA1
:1036C0008093A1011FBF03EB11E0F80184910E5F0D
:1036D0001F4F31966491882319F00E94350DF5CF64
:1036E00061E086E00E94D20C61E070E080E090E052
:1036F0000E94090E60E086E00E94D20C6AE070E051
:1037000080E090E00E94090E61E086E00E94D20C09
:10371000ECE9F0E1E491F0E0EE0FFF1FEE57FF4E11
:10372000859194919093A7018093A601EFE6F0E133
:10373000E491E093A501E4E9F0E1E491F0E0EE0F1B
:10374000FF1FEE57FF4E859194919093A4018093B3
:10375000A301E7E6F0E1E491E093A2018CB58C7F50
:103760008CBD8DB581608DBDE091A601F091A70162
:1037700090818091A501982B9083A091A301B09195
:10378000A4012C919091A201909592239C939081F9
:10379000809589238083E6EAF1E021E0E33BF207AC
:1037A00049F084918EBD00000DB407FEFDCF8EB5AB
:1037B0003196F3CFE091A301F091A4019081809123
:1037C000A201892B8083E091A601F091A70190814D
:1037D0008091A50180958923808380916400816018
:1037E0008093640080916400826080936400809183
:1037F000640080688093640080916400806480939A
:103800006400809165008160809365000E94640F70
:1038100087FF1AC080E094E01EBC00000DB407FED4
:10382000FDCF2EB50197C1F760E070E08AE00E94FD
:10383000710D60E070E08BE00E94710D60E070E05F
:1038400089E00E94710DFFCFBEEE8B2E99249A94D1
:1038500018E1AA24AA94B12C812F8819B501681BFC
:1038600071098AE00E94710D6FEF70E08BE00E9499
:10387000710D6FEF70E089E00E94710D0E94C11917
:10388000CC24C394A0E1EA2E08E528EE30E0A401A0
:1038900064E170E088E292E00E946C118CE392E0B7
:1038A0000E94810F6BE170E080E090E00E94090EC1
:1038B00030EF831206C06AEF70E080E090E00E9473
:1038C000090E4FEF841A940A59E18516910421F6E6
:1038D0006EEE72E080E090E00E94090E6FEF70E003
:1038E0008AE00E94710D6FEF70E08BE00E94710D15
:1038F0006FEF70E089E00E94710D85E00E94D019A1
:103900008DE00E94D01910929B0182E090E00E940D
:103910007C23882369F080916400877F8093640012
:1039200080916500877F8093650081E08093A0018E
:103930008FEF9FEF9093D7018093D60166EC71E0F3
:103940008AEC91E00E94AE0C8CE891E00E9468192C
:1039500080E191E0A0E4A80FAC8372E4472E512CE3
:10396000E8E06E2E712CFAE42F2E312C2FB7F8944C
:1039700080919C0190919D01A0919E01B0919F0129
:103980002FBF20913A02222391F020913202E82F9A
:10399000E21BE0933B0220912F02309130022F5F17
:1039A0003F4F3093300220932F0210923A02409101
:1039B00036025091370260913802709139028417B3
:1039C0009507A607B7077CF4481B423008F458C592
:1039D00083B7817F83BF83B7816083BF889583B7B7
:1039E0008E7F83BF4DC520913102AC01BD01420FD6
:1039F000511D611D711D4093360250933702609333
:103A00003802709339028093320290933302A0936C
:103A10003402B093350211E010933A0280914206CD
:103A2000809343060E94640F809342060E94C1194E
:103A300080911A0290911B02DC01A35EBB4F2C9176
:103A4000243009F495C118F4213041F015C5253012
:103A500009F463C3263009F444C40EC5AC01445EC6
:103A60005B4FFA018081813061F020911E0230911C
:103A70001F02F9011482158280E487838C91DA0198
:103A80008C93E0901E02F0901F02F7018681811155
:103A900009C068E0808191810E94DE17D7011696E7
:103AA0008C9395C0F701878118161CF48250878388
:103AB0008EC00081118168E0C8010E94DE17882352
:103AC00009F467C0F7019481913091F158F0933077
:103AD00009F45CC0943009F05CC0F701148282E004
:103AE000858357C08581813041F0823051F081114A
:103AF00050C081E0848315824CC083E0F701848349
:103B000043C00280F381E02D80819181AC01435E4E
:103B10005B4FDA012C9134E0328323832C91248390
:103B2000845E9B4F2C91DC012C9386E0DA011AC055
:103B3000F70185818130D9F0823021F1811129C0CE
:103B40000280F381E02D928384E0838380819181E0
:103B50009C01235E3B4FD9014C91448311974C93B8
:103B600086E0D9018C9316821782108612C0D80184
:103B7000A45EBB4FF801E35EFB4F80818C9384E031
:103B8000808307C0F7011482158203C0148281E08C
:103B90008583D7010D911C9160E8C8010E94DE1752
:103BA000882331F0F7019581191614F4915095830B
:103BB00060E1C8010E94DE17882349F0D7011596FD
:103BC0008C91159782301CF48F5F15968C93F701BA
:103BD0004781141644F440522BE835E060E48081BC
:103BE00091810E94EB17D70114968C91813009F4D2
:103BF00071C088F0833009F03FC4F7018081918162
:103C0000FC01EC5EFB4F1182108232961182108211
:103C10006BE475E0AAC0F7012781022E000C330B7C
:103C2000285F3F4F80819181FC01EC5EFB4F7182E8
:103C3000608232963183208366E875E00E94AE0C84
:103C4000D70117962C911797022E000C330B205F8B
:103C50003F4F8D919C91FC01EC5EFB4F7182608225
:103C60003296318320836FE775E00E94AE0CF70136
:103C70002781022E000C330B285E3F4F80819181FB
:103C8000FC01EC5EFB4F71826082329631832083AF
:103C900069E775E00E94AE0CD70115968C911597D7
:103CA00017962C91022E000C330B285F3F4FB8E083
:103CB0008B02200D311D1124F70180819181FC01BF
:103CC000EC5EFB4F1182108232963183208367E7CE
:103CD00075E04BC0D7018D919C91FC01EC5EFB4FD0
:103CE0007182608232967182608261E775E00E9423
:103CF000AE0CF70180819181FC01EC5EFB4F71827B
:103D00006082329620E130E03183208367E675E0FF
:103D10000E94AE0CD7018D919C91FC01EC5EFB4F93
:103D200071826082329628E130E03183208362E63E
:103D300075E00E94AE0CD70115962C911597022EB6
:103D4000000C330B2F5F3F4F63E0220F331F6A9548
:103D5000E1F78D919C91FC01EC5EFB4F118210828A
:103D600032963183208360E675E00E94AE0C84C3F6
:103D70008C01045E1B4FF8018081813009F05CC02A
:103D8000E0912202F09123028683808781878AE076
:103D900085878687838784876091200270912102BE
:103DA00088E0FB01818382839B012D5F3F4F80E18F
:103DB00091E0FC014191CF01F90141939F01FC8108
:103DC000F813F7CF84E0FB0180836D577F4FFB0131
:103DD00040A94031A1F0242F042E000C330BC9015F
:103DE000880F991F820F931F860F971F21E0FC01F8
:103DF00020831182228381E0840FFB0180ABFB01D1
:103E000040A94031B1F0842F042E000C990B9C0185
:103E1000220F331F820F931F860F971F22E0FC0192
:103E2000208321E0218326E0228381E0840FFB01AF
:103E300080AB8C91D8018C938090220290902302C9
:103E4000F4011781A080B18060E2C5010E94DE17F5
:103E5000882331F08FEF810F8370D40117968C93F4
:103E600060E4C5010E94DE17882329F0F4018781F0
:103E70008F5F83708783D40117968C911797811772
:103E800019F081E016968C9360E8C5010E94DE1758
:103E9000882321F061E0C4010E948A1760E1F401E7
:103EA000808191810E94DE17882321F06FEFC40189
:103EB0000E948A17D40116968C91882309F49BC01E
:103EC0008FE891E00E946819F401628570E080E05B
:103ED00090E04AE00E9480198CE891E00E94681905
:103EE000D40119964C91199718966C9118971296BF
:103EF0008D919C9113970E9438148823E9F16CE30B
:103F000075E08AEC91E00E94AE0C4AE060E070E05F
:103F1000CB010E94801965E375E08AEC91E00E9474
:103F2000AE0CF4015185A0852281338140E02D57EC
:103F30003F4F403198F4842F90E0BC01660F771F0B
:103F4000860F971FF901E80FF91F81818A1303C0BB
:103F50008281851711F04F5FECCFD42E8D2D90E02C
:103F6000A0E0B0E04AE0BC01CD010E9480198CE8DD
:103F700091E00E9468193FC0D4011A962C9130E05C
:103F800040E050E0211531054105510571F02D83C8
:103F90003E834F8358870E946E232D813E814F813F
:103FA00058850E9484239B01AC01D4011296ED91A7
:103FB000FC911397808190E0A0E0B0E08217930716
:103FC000A407B507C4F4D401ED91FC91DF01A45E10
:103FD000BB4FE35EFB4F80818C9385E080836DE275
:103FE00075E08AEC91E00E94AE0C8CE891E00E94B2
:103FF0006819F4011286D4011996FC901997189645
:10400000BC90189712960D911C9113974F2D6B2D04
:10401000C8010E943814882309F473C068E0F401D1
:10402000808191810E94DE17882309F46AC040E0F4
:10403000D801AD57BF4F403198F4842F90E09C01D8
:10404000220F331F820F931FFD01E80FF91F81819B
:104050008B1103C082818F1511F04F5FECCF4B8322
:104060004B81642F70E0D0969C91D0974F5F292FA1
:10407000092E000C330B62177307CCF49B01220F3F
:10408000331F260F371F2A0F3B1FCB010196FC0160
:10409000EE0FFF1F8E0F9F1FFD01E80FF91F6081BC
:1040A00071818281F901608371838283DACF9150BB
:1040B000D0969C93F401A481B5814D915C911197A8
:1040C000CA01835E9B4FFC01208135E012963C9330
:1040D000129713962C931397208114962C93149770
:1040E0003197208326E0FC01208316961C921697B8
:1040F00017961C92179718961C9281E0D401169679
:104100008C9380911C0290911D020E944B16E091AD
:104110002202F09123021682AFC1AC01445E5B4FD4
:10412000FA018081843069F42091260230912702BF
:1041300080EEF901878388E2808711878C91DA010C
:104140008C93E0902602F0902702F7018185813060
:1041500019F0823051F03CC087818C5F8783908555
:104160008917B4F582E0818733C0F701008111819E
:1041700060E8C8010E94DE17882349F0D70116962F
:104180008C911697882319F0815016968C9360E1D4
:10419000C8010E94DE17882331F0F7018681823042
:1041A00010F48F5F868368E0C8010E94DE178823C1
:1041B00079F0D70116968C91823051F4D801A45E23
:1041C000BB4FF801E35EFB4F80818C9384E08083DA
:1041D00080911C0290911D020E94511400912602B0
:1041E000109127022BEE34E0F801478160E28081D4
:1041F00091810E94EB17D80119968C91813009F4B6
:1042000051C0823009F044C1D8018D919C91FC01CC
:10421000EC5EFB4F31822082329620E130E0318328
:10422000208369EC74E00E94AE0CD8018D919C91C2
:10423000FC01EC5EFB4F31822082329628E130E0B7
:104240003183208364EC74E00E94AE0CD8018D9120
:104250009C91FC01EC5EFB4F31822082329620E281
:1042600030E03183208360EC74E00E94AE0CD80112
:1042700016962C91169730E02E5F3F4F43E0220FA9
:10428000331F4A95E1F78D919C91FC01EC5EFB4F49
:10429000518240823296318320836EEB74E00E941B
:1042A000AE0CF6C0F80180819181FC01EC5EFB4F01
:1042B0005182408232967182608269ED74E00E9480
:1042C000AE0CD8018D919C91FC01EC5EFB4F5182AC
:1042D0004082329620E130E0318320836FEC74E03D
:1042E00044CDE0902402F0902502F70182818130D4
:1042F00031F0C0F0843039F0853071F016C068E0DC
:104300008081918104C068E0F701808191810E94E1
:10431000DE17882351F006C087818F5F878310875F
:10432000813518F0C7010E94CC17E0912402F0916A
:1043300025028085882331F080911C0290911D0216
:104340000E944B16A0912402B091250212968C91E6
:104350001297843021F1853009F43FC0813009F093
:104360008BC017968C9117978F5F17968C93179722
:10437000EDEBF3E0E490ECEBF3E0049160E60E94F7
:10438000092340EE490F042E000C550BCC24C39496
:104390002EEB33E060E270E08D919C916BC017963C
:1043A0008C91179787FD04C08F5F17968C93179792
:1043B00017968C911797869520E430E0281B3109D9
:1043C0008D919C91FC01EC5EFB4F11821082329624
:1043D0003183208363E673E0C8CC17968C911797DE
:1043E000803208F462C0893230F08D3308F462C044
:1043F00080FF42C05FC027E0822E23E0922E8BE236
:104400009FE1F401F49031961491A82E880FBB0817
:10441000812F17FF02C081E0810F8595A81AB1088E
:1044200087FDB394292F990F330B8F2DF7FE02C010
:1044300081E08F0D8595A901481B510987FD539592
:104440005A8749878D919C919A838983C12CE12E4B
:104450000F2D2FEC31E0A50169857A850E946C1142
:1044600094012E5F3F4FCC24C394A50169857A85C2
:1044700089819A810E946C118CE392E00E94810FE5
:1044800080E090E0892B09F471CA0E9400006ECA96
:104490002CE348E262E0C8010E942A192EE644E6B5
:1044A00062E4C8010E942A19E7CF99E2892E92E0BE
:1044B000992EA5CF85E8882E82E0982E89E291E298
:1044C000A0CFEF92FF920F931F93CF93DF93EAEC6D
:1044D000F1E01382128288EE93E0A0E0B0E08483E2
:1044E0009583A683B78388E791E0918380838FEFDC
:1044F0009FEF95878487E8E2F2E0138212821086AC
:10450000178216861786108A118A128A10923D0623
:1045100010923C0610923F0610923E0681E0809376
:10452000400628E831E031832083109244068093CE
:104530004506109242068FEF809343068EE18683F4
:1045400081E281878DE697E0DC01ED93FC93C6E57F
:10455000D7E0F983E88362E876E07B836A839D8312
:104560008C8348E756E0DA011196FC93EE9313969C
:10457000DC93CE93129700E716E0D8011196FC93D6
:10458000EE9313969C938E9312972BE03AE5E32ECD
:1045900036E0F32ED701322F1D923A95E9F7A5E6C2
:1045A000EA2EA6E0FA2ED7011D922A95E9F724E516
:1045B00036E0D9011196FC93EE9313967C936E939B
:1045C00012971596DC93CE931497AAE1B2E0119658
:1045D000FC93EE9315961C930E93149713963C93AD
:1045E0002E9312971996DC93CE93189717967C9377
:1045F0006E9316971B969C938E931A971D965C93B9
:104600004E931C97DF91CF911F910F91FF90EF90E8
:104610000895991B79E004C0991F961708F0961B1E
:10462000881F7A95C9F780950895EE0FFF1F0590B2
:10463000F491E02D099481E090E0F8940C94E72344
:104640008F929F92AF92BF92CF92DF92EF92FF92A2
:10465000CF93DF93EC01688179818A819B81611519
:1046600071058105910521F464E279ED8BE597E010
:104670002DE133EF41E050E00E94842349015A01CB
:104680009B01AC01A7EAB1E40E94A3236B017C016A
:10469000ACEEB4EFA50194010E94B123DC01CB0183
:1046A0008C0D9D1DAE1DBF1DB7FF03C00197A10955
:1046B000B04888839983AA83BB83BC01CD019F77CF
:1046C000DF91CF91FF90EF90DF90CF90BF90AF90B0
:1046D0009F908F9008950E94202308958CE091E090
:1046E0000E942023089560930C0170930D01809324
:1046F0000E0190930F010895F999FECF92BD81BDEF
:10470000F89A992780B50895052E97FB1EF400941A
:104710000E949B2357FD07D00E94B62307FC03D0BD
:104720004EF40C949B2350954095309521953F4F26
:104730004F4F5F4F089590958095709561957F4F8D
:104740008F4F9F4F08950E94D823A59F900DB49F2F
:10475000900DA49F800D911D11240895B7FF0C9416
:10476000A3230E94A323821B930B0895A1E21A2E78
:10477000AA1BBB1BFD010DC0AA1FBB1FEE1FFF1F05
:10478000A217B307E407F50720F0A21BB30BE40B55
:10479000F50B661F771F881F991F1A9469F760959C
:1047A0007095809590959B01AC01BD01CF01089556
:1047B000A29FB001B39FC001A39F700D811D112462
:1047C000911DB29F700D811D1124911D0895F894C3
:0247D000FFCF19
:1047D200FFFFFFFF00E100000000000001000000F9
:1047E20001010101010101010000000000010000BE
:1047F20001010001010000010100000000000100B0
:10480200010100010101010001000000000000009F
:104812000100010101010100010101010101010089
:1048220000C18081000000060A122040FF0001FF43
:104832000001FF0001FF0001030303020202010164
:1048420001000000000000004E09430E6F09BD097F
:10485200DB09640900000000001323090D0A00535C
:08486200746570203A2000008B
:00000001FF
